{
  "_format": "hh-sol-artifact-1",
  "contractName": "GetSet",
  "sourceName": "contracts/GetSet.sol",
  "abi": [
    {
      "inputs": [
        {
          "internalType": "address",
          "name": "",
          "type": "address"
        }
      ],
      "name": "balances",
      "outputs": [
        {
          "internalType": "uint256",
          "name": "",
          "type": "uint256"
        }
      ],
      "stateMutability": "view",
      "type": "function"
    },
    {
      "inputs": [],
      "name": "deposit",
      "outputs": [],
      "stateMutability": "payable",
      "type": "function"
    },
    {
      "inputs": [],
      "name": "get",
      "outputs": [
        {
          "internalType": "uint256",
          "name": "",
          "type": "uint256"
        }
      ],
      "stateMutability": "view",
      "type": "function"
    },
    {
      "inputs": [
        {
          "internalType": "address",
          "name": "_addr",
          "type": "address"
        }
      ],
      "name": "getBalance",
      "outputs": [
        {
          "internalType": "uint256",
          "name": "",
          "type": "uint256"
        }
      ],
      "stateMutability": "view",
      "type": "function"
    },
    {
      "inputs": [
        {
          "internalType": "uint256",
          "name": "_value",
          "type": "uint256"
        }
      ],
      "name": "set",
      "outputs": [],
      "stateMutability": "nonpayable",
      "type": "function"
    },
    {
      "inputs": [],
      "name": "value",
      "outputs": [
        {
          "internalType": "uint256",
          "name": "",
          "type": "uint256"
        }
      ],
      "stateMutability": "view",
      "type": "function"
    },
    {
      "stateMutability": "payable",
      "type": "receive"
    }
  ],
  "bytecode": "0x6080604052348015600f57600080fd5b506104b88061001f6000396000f3fe6080604052600436106100595760003560e01c806327e235e31461006d5780633fa4f245146100aa57806360fe47b1146100d55780636d4ce63c146100fe578063d0e30db014610129578063f8b2cb4f1461013357610068565b3661006857610066610170565b005b600080fd5b34801561007957600080fd5b50610094600480360381019061008f91906102e8565b61020b565b6040516100a1919061032e565b60405180910390f35b3480156100b657600080fd5b506100bf610223565b6040516100cc919061032e565b60405180910390f35b3480156100e157600080fd5b506100fc60048036038101906100f79190610375565b610229565b005b34801561010a57600080fd5b50610113610233565b604051610120919061032e565b60405180910390f35b610131610170565b005b34801561013f57600080fd5b5061015a600480360381019061015591906102e8565b61023c565b604051610167919061032e565b60405180910390f35b600034116101b3576040517f08c379a00000000000000000000000000000000000000000000000000000000081526004016101aa906103ff565b60405180910390fd5b34600160003373ffffffffffffffffffffffffffffffffffffffff1673ffffffffffffffffffffffffffffffffffffffff1681526020019081526020016000206000828254610202919061044e565b92505081905550565b60016020528060005260406000206000915090505481565b60005481565b8060008190555050565b60008054905090565b6000600160008373ffffffffffffffffffffffffffffffffffffffff1673ffffffffffffffffffffffffffffffffffffffff168152602001908152602001600020549050919050565b600080fd5b600073ffffffffffffffffffffffffffffffffffffffff82169050919050565b60006102b58261028a565b9050919050565b6102c5816102aa565b81146102d057600080fd5b50565b6000813590506102e2816102bc565b92915050565b6000602082840312156102fe576102fd610285565b5b600061030c848285016102d3565b91505092915050565b6000819050919050565b61032881610315565b82525050565b6000602082019050610343600083018461031f565b92915050565b61035281610315565b811461035d57600080fd5b50565b60008135905061036f81610349565b92915050565b60006020828403121561038b5761038a610285565b5b600061039984828501610360565b91505092915050565b600082825260208201905092915050565b7f4d7573742073656e6420736f6d65204574686572000000000000000000000000600082015250565b60006103e96014836103a2565b91506103f4826103b3565b602082019050919050565b60006020820190508181036000830152610418816103dc565b9050919050565b7f4e487b7100000000000000000000000000000000000000000000000000000000600052601160045260246000fd5b600061045982610315565b915061046483610315565b925082820190508082111561047c5761047b61041f565b5b9291505056fea2646970667358221220f497d707b6a8196b796bec93d5792f3201f2daf6ebcdc2f481795d6a32409b3564736f6c634300081c0033",
  "linkReferences": {},
  "deployedLinkReferences": {}
}